{
  "contractName": "TodoList",
  "abi": [
    {
      "constant": true,
      "inputs": [
        {
          "name": "",
          "type": "uint256"
        }
      ],
      "name": "tasks",
      "outputs": [
        {
          "name": "id",
          "type": "uint256"
        },
        {
          "name": "content",
          "type": "string"
        },
        {
          "name": "completed",
          "type": "bool"
        },
        {
          "name": "exists",
          "type": "bool"
        }
      ],
      "payable": false,
      "stateMutability": "view",
      "type": "function"
    },
    {
      "constant": true,
      "inputs": [],
      "name": "taskCount",
      "outputs": [
        {
          "name": "",
          "type": "uint256"
        }
      ],
      "payable": false,
      "stateMutability": "view",
      "type": "function"
    },
    {
      "inputs": [],
      "payable": false,
      "stateMutability": "nonpayable",
      "type": "constructor"
    },
    {
      "anonymous": false,
      "inputs": [
        {
          "indexed": false,
          "name": "id",
          "type": "uint256"
        },
        {
          "indexed": false,
          "name": "content",
          "type": "string"
        },
        {
          "indexed": false,
          "name": "completed",
          "type": "bool"
        }
      ],
      "name": "TaskCreated",
      "type": "event"
    },
    {
      "anonymous": false,
      "inputs": [
        {
          "indexed": false,
          "name": "id",
          "type": "uint256"
        },
        {
          "indexed": false,
          "name": "completed",
          "type": "bool"
        }
      ],
      "name": "TaskCompleted",
      "type": "event"
    },
    {
      "anonymous": false,
      "inputs": [
        {
          "indexed": false,
          "name": "id",
          "type": "uint256"
        },
        {
          "indexed": false,
          "name": "content",
          "type": "string"
        }
      ],
      "name": "TaskUpdated",
      "type": "event"
    },
    {
      "anonymous": false,
      "inputs": [
        {
          "indexed": false,
          "name": "id",
          "type": "uint256"
        }
      ],
      "name": "TaskDeleted",
      "type": "event"
    },
    {
      "constant": false,
      "inputs": [
        {
          "name": "_content",
          "type": "string"
        }
      ],
      "name": "createTask",
      "outputs": [],
      "payable": false,
      "stateMutability": "nonpayable",
      "type": "function"
    },
    {
      "constant": false,
      "inputs": [
        {
          "name": "_id",
          "type": "uint256"
        },
        {
          "name": "_content",
          "type": "string"
        }
      ],
      "name": "updateTask",
      "outputs": [],
      "payable": false,
      "stateMutability": "nonpayable",
      "type": "function"
    },
    {
      "constant": false,
      "inputs": [
        {
          "name": "_id",
          "type": "uint256"
        }
      ],
      "name": "deleteTask",
      "outputs": [],
      "payable": false,
      "stateMutability": "nonpayable",
      "type": "function"
    },
    {
      "constant": false,
      "inputs": [
        {
          "name": "_id",
          "type": "uint256"
        }
      ],
      "name": "toggleCompleted",
      "outputs": [],
      "payable": false,
      "stateMutability": "nonpayable",
      "type": "function"
    }
  ],
  "bytecode": "0x6080604052600080553480156200001557600080fd5b5060408051808201909152600781527f5461736b2023310000000000000000000000000000000000000000000000000060208201526200005e9064010000000062000064810204565b62000249565b600080546001908101808355604080516080810182528281526020808201878152828401879052606083018690529386528481529190942084518155915180519293620000ba93908501929190910190620001a4565b506040828101516002909201805460609485015115156101000261ff001994151560ff19909216919091179390931692909217909155600080548251818152928301829052602080840185815286519585019590955285517f05d0fb833127fc08168556d0e7ca9554fc3f6bc843b3b7d2bf1c35aea6bab660959294879493909290916080840191860190808383885b83811015620001645781810151838201526020016200014a565b50505050905090810190601f168015620001925780820380516001836020036101000a031916815260200191505b5094505050505060405180910390a150565b828054600181600116156101000203166002900490600052602060002090601f016020900481019282601f10620001e757805160ff191683800117855562000217565b8280016001018555821562000217579182015b8281111562000217578251825591602001919060010190620001fa565b506200022592915062000229565b5090565b6200024691905b8082111562000225576000815560010162000230565b90565b610d8f80620002596000396000f3fe6080604052600436106100775763ffffffff7c0100000000000000000000000000000000000000000000000000000000600035041663111002aa811461007c578063455f502414610131578063560f31921461015b57806386533f6c146101855780638d9776721461023f578063b6cb58a5146102fb575b600080fd5b34801561008857600080fd5b5061012f6004803603602081101561009f57600080fd5b8101906020810181356401000000008111156100ba57600080fd5b8201836020820111156100cc57600080fd5b803590602001918460018302840111640100000000831117156100ee57600080fd5b91908080601f016020809104026020016040519081016040528093929190818152602001838380828437600092019190915250929550610322945050505050565b005b34801561013d57600080fd5b5061012f6004803603602081101561015457600080fd5b503561045d565b34801561016757600080fd5b5061012f6004803603602081101561017e57600080fd5b50356106c1565b34801561019157600080fd5b5061012f600480360360408110156101a857600080fd5b813591908101906040810160208201356401000000008111156101ca57600080fd5b8201836020820111156101dc57600080fd5b803590602001918460018302840111640100000000831117156101fe57600080fd5b91908080601f016020809104026020016040519081016040528093929190818152602001838380828437600092019190915250929550610917945050505050565b34801561024b57600080fd5b506102696004803603602081101561026257600080fd5b5035610bdd565b6040805185815283151591810191909152811515606082015260806020808301828152865192840192909252855160a084019187019080838360005b838110156102bd5781810151838201526020016102a5565b50505050905090810190601f1680156102ea5780820380516001836020036101000a031916815260200191505b509550505050505060405180910390f35b34801561030757600080fd5b50610310610c95565b60408051918252519081900360200190f35b60008054600190810180835560408051608081018252828152602080820187815282840187905260608301869052938652848152919094208451815591518051929361037693908501929190910190610c9b565b506040828101516002909201805460609485015115156101000261ff001994151560ff19909216919091179390931692909217909155600080548251818152928301829052602080840185815286519585019590955285517f05d0fb833127fc08168556d0e7ca9554fc3f6bc843b3b7d2bf1c35aea6bab660959294879493909290916080840191860190808383885b8381101561041e578181015183820152602001610406565b50505050905090810190601f16801561044b5780820380516001836020036101000a031916815260200191505b5094505050505060405180910390a150565b60008111801561046f57506000548111155b15156104c5576040805160e560020a62461bcd02815260206004820152601360248201527f5461736b20646f6573206e6f7420657869737400000000000000000000000000604482015290519081900360640190fd5b600081815260016020526040902060020154610100900460ff161515610535576040805160e560020a62461bcd02815260206004820152601560248201527f5461736b20686173206265656e2064656c657465640000000000000000000000604482015290519081900360640190fd5b61053d610d19565b60008281526001602081815260409283902083516080810185528154815281840180548651600296821615610100026000190190911695909504601f810185900485028601850190965285855290949193858401939092908301828280156105e65780601f106105bb576101008083540402835291602001916105e6565b820191906000526020600020905b8154815290600101906020018083116105c957829003601f168201915b50505091835250506002919091015460ff8082161515602080850191909152610100909204161515604092830152828201805115905260008581526001808352929020835181558382015180519495508594919361064a9390850192910190610c9b565b506040828101516002909201805460609094015115156101000261ff001993151560ff199095169490941792909216929092179055818101518151848152901515602082015281517fe21fa966ca5cd02748c0752352d18c48165e61cb55b4c29cccf924b5a95fcff1929181900390910190a15050565b6000811180156106d357506000548111155b1515610729576040805160e560020a62461bcd02815260206004820152601360248201527f5461736b20646f6573206e6f7420657869737400000000000000000000000000604482015290519081900360640190fd5b600081815260016020526040902060020154610100900460ff161515610799576040805160e560020a62461bcd02815260206004820152601560248201527f5461736b20686173206265656e2064656c657465640000000000000000000000604482015290519081900360640190fd5b6107a1610d19565b60008281526001602081815260409283902083516080810185528154815281840180548651600296821615610100026000190190911695909504601f8101859004850286018501909652858552909491938584019390929083018282801561084a5780601f1061081f5761010080835404028352916020019161084a565b820191906000526020600020905b81548152906001019060200180831161082d57829003601f168201915b50505091835250506002919091015460ff8082161515602080850191909152610100909204161515604092830152600060608401819052858152600180835292902083518155838201518051949550859491936108ad9390850192910190610c9b565b506040828101516002909201805460609094015115156101000261ff001993151560ff199095169490941792909216929092179055805183815290517fd078b251d950cc55c44340be1db732337ef4939a76e1367ee271ad2cb19c46af9181900360200190a15050565b60008211801561092957506000548211155b151561097f576040805160e560020a62461bcd02815260206004820152601360248201527f5461736b20646f6573206e6f7420657869737400000000000000000000000000604482015290519081900360640190fd5b600082815260016020526040902060020154610100900460ff1615156109ef576040805160e560020a62461bcd02815260206004820152601560248201527f5461736b20686173206265656e2064656c657465640000000000000000000000604482015290519081900360640190fd5b6109f7610d19565b60008381526001602081815260409283902083516080810185528154815281840180548651600296821615610100026000190190911695909504601f81018590048502860185019096528585529094919385840193909290830182828015610aa05780601f10610a7557610100808354040283529160200191610aa0565b820191906000526020600020905b815481529060010190602001808311610a8357829003601f168201915b50505091835250506002919091015460ff808216151560208085019190915261010090920416151560409283015282810185815260008781526001808452939020845181559051805194955085949193610b009390850192910190610c9b565b506040828101516002909201805460609485015115156101000261ff001994151560ff199092169190911793909316929092179091558051858152602080820183815286519383019390935285517fde038a66d64727fc277f5f5f3d50b98d205e4ae705bfb8ac824cea4877b9be499488948894939092918401919085019080838360005b83811015610b9d578181015183820152602001610b85565b50505050905090810190601f168015610bca5780820380516001836020036101000a031916815260200191505b50935050505060405180910390a1505050565b600160208181526000928352604092839020805481840180548651600296821615610100026000190190911695909504601f81018590048502860185019096528585529094919392909190830182828015610c795780601f10610c4e57610100808354040283529160200191610c79565b820191906000526020600020905b815481529060010190602001808311610c5c57829003601f168201915b5050506002909301549192505060ff8082169161010090041684565b60005481565b828054600181600116156101000203166002900490600052602060002090601f016020900481019282601f10610cdc57805160ff1916838001178555610d09565b82800160010185558215610d09579182015b82811115610d09578251825591602001919060010190610cee565b50610d15929150610d46565b5090565b60806040519081016040528060008152602001606081526020016000151581526020016000151581525090565b610d6091905b80821115610d155760008155600101610d4c565b9056fea165627a7a7230582076c93e4624f0ac12e326bd2bcb5eeff6f490627d0305c58b9a5660450f4fd61d0029",
  "source": "pragma solidity ^0.5.0;\n\ncontract TodoList {\n  uint public taskCount = 0;\n\n  struct Task {\n    uint id;\n    string content;\n    bool completed;\n    bool exists;  // Track if task exists or has been deleted\n  }\n\n  mapping(uint => Task) public tasks;\n\n  event TaskCreated(\n    uint id,\n    string content,\n    bool completed\n  );\n\n  event TaskCompleted(\n    uint id,\n    bool completed\n  );\n  \n  event TaskUpdated(\n    uint id,\n    string content\n  );\n  \n  event TaskDeleted(\n    uint id\n  );\n\n  constructor() public {\n    createTask(\"Task #1\");\n  }\n\n  function createTask(string memory _content) public {\n    taskCount ++;\n    tasks[taskCount] = Task(taskCount, _content, false, true);\n    emit TaskCreated(taskCount, _content, false);\n  }\n  \n  function updateTask(uint _id, string memory _content) public {\n    // Make sure task exists and hasn't been deleted\n    require(_id > 0 && _id <= taskCount, \"Task does not exist\");\n    require(tasks[_id].exists, \"Task has been deleted\");\n    \n    // Update task content\n    Task memory _task = tasks[_id];\n    _task.content = _content;\n    tasks[_id] = _task;\n    \n    emit TaskUpdated(_id, _content);\n  }\n  \n  function deleteTask(uint _id) public {\n    // Make sure task exists and hasn't been deleted\n    require(_id > 0 && _id <= taskCount, \"Task does not exist\");\n    require(tasks[_id].exists, \"Task has been deleted\");\n    \n    // Mark task as deleted but keep it in the mapping for id consistency\n    Task memory _task = tasks[_id];\n    _task.exists = false;\n    tasks[_id] = _task;\n    \n    emit TaskDeleted(_id);\n  }\n  \n  function toggleCompleted(uint _id) public {\n    // Make sure task exists and hasn't been deleted\n    require(_id > 0 && _id <= taskCount, \"Task does not exist\");\n    require(tasks[_id].exists, \"Task has been deleted\");\n    \n    Task memory _task = tasks[_id];\n    _task.completed = !_task.completed;\n    tasks[_id] = _task;\n    emit TaskCompleted(_id, _task.completed);\n  }\n}\n\n",
  "sourcePath": "C:\\Users\\user\\Downloads\\Compressed\\Ethereum-Todo-List\\contracts\\TodoList.sol",
  "compiler": {
    "name": "solc",
    "version": "0.5.0+commit.1d4f565a.Emscripten.clang"
  },
  "schemaVersion": "3.4.16",
  "updatedAt": "2025-05-28T07:57:37.681Z",
  "networkType": "ethereum",
  "devdoc": {
    "methods": {}
  },
  "userdoc": {
    "methods": {}
  }
}